{
    "contractName": "MySmartContract",
    "abi": [
        {
            "inputs": [
                {
                    "internalType": "string",
                    "name": "str",
                    "type": "string"
                }
            ],
            "name": "Greet",
            "outputs": [
                {
                    "internalType": "string",
                    "name": "",
                    "type": "string"
                }
            ],
            "stateMutability": "view",
            "type": "function"
        },
        {
            "inputs": [],
            "name": "Hello",
            "outputs": [
                {
                    "internalType": "string",
                    "name": "",
                    "type": "string"
                }
            ],
            "stateMutability": "view",
            "type": "function"
        }
    ],
    "bytecode": "608060405234801561001057600080fd5b506101d7806100206000396000f3fe608060405234801561001057600080fd5b50600436106100365760003560e01c8063bcdfe0d51461003b578063efdeaaf514610074575b600080fd5b60408051808201909152600b81526a12195b1b1bc815dbdc9b1960aa1b60208201525b60405161006b9190610085565b60405180910390f35b61005e6100823660046100f0565b90565b600060208083528351808285015260005b818110156100b257858101830151858201604001528201610096565b818111156100c4576000604083870101525b50601f01601f1916929092016040019392505050565b634e487b7160e01b600052604160045260246000fd5b60006020828403121561010257600080fd5b813567ffffffffffffffff8082111561011a57600080fd5b818401915084601f83011261012e57600080fd5b813581811115610140576101406100da565b604051601f8201601f19908116603f01168101908382118183101715610168576101686100da565b8160405282815287602084870101111561018157600080fd5b82602086016020830137600092810160200192909252509594505050505056fea2646970667358221220bed02daa2c9e81bb34e1b5715bfcee92ac9be9d6cbb293282c7b87689b7a92c564736f6c634300080d0033",
    "sourcePath": "c:/Users/zion/smart-contract/SmartContract.sol",
    "compiler": {
        "name": "solc",
        "version": "0.8.13+commit.abaa5c0e"
    },
    "functionHashes": {
        "Greet(string)": "efdeaaf5",
        "Hello()": "bcdfe0d5"
    },
    "gasEstimates": {
        "creation": {
            "codeDepositCost": "94200",
            "executionCost": "141",
            "totalCost": "94341"
        },
        "external": {
            "Greet(string)": "infinite",
            "Hello()": "infinite"
        }
    }
}